:1000000012C019C018C017C016C015C014C013C044
:1000100012C011C010C00FC00EC00DC00CC00BC06C
:100020000AC009C008C011241FBECFE5D4E0DEBF5E
:10003000CDBFADD0E9C0E4CF9C0140E050E0220F3D
:10004000331F441F551F220F331F441F551F220FFC
:10005000331F441F551F220F331F441F551F60E0DD
:1000600072E18AE790E0AED0215030408AB18861D9
:100070008AB980B5866880BD29B930BD08955F9B77
:10008000FECF8CB108958CB95D9BFECF0895CF93C0
:10009000DF93EC018881882329F02196F4DF899190
:1000A0008823E1F7DF91CF91089583E0A99A2FE3A8
:1000B0003DE043E0215030404040E1F700C0000007
:1000C000A9982FE33DE043E0215030404040E1F764
:1000D00000C00000815051F70895AA9A87EA91E67E
:1000E0000197F1F700C000000895AA9887EA91E609
:1000F0000197F1F700C00000089586B308956623C4
:1001000021F0681711F4862F08950895883061F062
:10011000893018F4843079F405C0883151F088387A
:1001200051F40BC083E50895AD9AAC98AB9882E585
:10013000089585E5089580E5089584E50895A3DF91
:1001400008959DDF0895FF920F931F93F62ED7DF3A
:10015000DDDF082FAADFC1DF10E0011731F0802FAB
:10016000EEDFEFDF182F0817D1F7BFDF9EDFB5DF17
:10017000C4DF882319F480E5E2DF05C08F1519F08C
:10018000AA9A812FDCDF1F910F91FF9008951F9392
:100190008FEF87BB14BA80E895E24EDFA89AADDFF7
:1001A000182F8FE39DE0A3E081509040A040E1F73D
:1001B00000C00000A2DF682F812FC5DF80E090E043
:1001C0001F910895A1E21A2EAA1BBB1BFD010DC0B1
:1001D000AA1FBB1FEE1FFF1FA217B307E407F507F7
:1001E00020F0A21BB30BE40BF50B661F771F881FD3
:1001F000991F1A9469F760957095809590959B0169
:0C020000AC01BD01CF010895F894FFCFC0
:00000001FF
